:020000040800F2
:100000000007002089010008B9150008D91300086D
:10001000B51500088F020008F31800080000000062
:10002000000000000000000000000000E9150008CA
:100030009302000800000000BD150008EB15000841
:10004000A3010008A3010008A3010008A301000800
:10005000A3010008A3010008A3010008A3010008F0
:10006000A3010008A3010008A3010008A3010008E0
:10007000A3010008A3010008A3010008A3010008D0
:10008000A3010008A3010008A3010008A3010008C0
:10009000A3010008A3010008A3010008A3010008B0
:1000A000A3010008A3010008A3010008A3010008A0
:1000B000A3010008A3010008A3010008A301000890
:1000C000A3010008A3010008A3010008A301000880
:1000D000A3010008A3010008A3010008A301000870
:1000E000A3010008A3010008A301000800F002F822
:1000F00000F03AF80AA090E8000C82448344AAF188
:100100000107DA4501D100F02FF8AFF2090EBAE885
:100110000F0013F0010F18BFFB1A43F0010318473B
:10012000C0180000E0180000103A24BF78C878C159
:10013000FAD8520724BF30C830C144BF04680C60ED
:10014000704700000023002400250026103A28BF35
:1001500078C1FBD8520728BF30C148BF0B60704739
:100160001FB51FBD10B510BD00F058F81146FFF7C0
:10017000F7FF01F0DDFB00F076F803B4FFF7F2FFC4
:1001800003BC00F07DF8000009488047094800479B
:10019000FEE7FEE7FEE7FEE7FEE7FEE7FEE7FEE737
:1001A000FEE7FEE704480549054A064B7047000094
:1001B00059160008ED00000800010020000700208B
:1001C00000030020000300204FF0000200B513469A
:1001D00094469646203922BFA0E80C50A0E80C5067
:1001E000B1F12001BFF4F7AF090728BFA0E80C5018
:1001F00048BF0CC05DF804EB890028BF40F8042B11
:1002000008BF704748BF20F8022B11F0804F18BF7D
:1002100000F8012B7047704770477047754600F033
:100220002BF8AE4605006946534620F00700854688
:1002300018B020B5FFF7B6FFBDE820404FF000062C
:100240004FF000074FF000084FF0000B21F00701BE
:10025000AC46ACE8C009ACE8C009ACE8C009ACE801
:10026000C0098D46704710B50446AFF300802046A4
:10027000BDE81040FFF781BF00487047A000002094
:1002800001491820ABBEFEE726000200704700BF00
:10029000FEE7704772B600BFFEE700002DE9F847A1
:1002A0000346002294466EE14FF0010808FA02F47A
:1002B000D1F8008008EA0400A0427DD1DFF8DCA27A
:1002C000D1F80480A8EB0A09D0453AD014DCB8F183
:1002D000030F50D009DCB8F1000F31D0B8F1010F95
:1002E0001CD0B8F1020F49D120E0B8F1110F18D09D
:1002F000B8F1120F42D11EE0B9F5881F25D006DCF7
:10030000B9F5803F20D0B9F5801F37D11AE0B9F593
:10031000001F18D0B9F5041F30D117E0D1F80CC078
:100320002DE0D1F80C8008F1040C28E0D1F80C8005
:1003300008F1080C23E0D1F80C8008F10C0C1EE049
:1003400000BF00BF00BF00BF00BF00BFD1F80880E2
:10035000B8F1000F02D14FF0040C0BE0D1F8088087
:10036000B8F1010F03D14FF0080C1C6102E04FF00F
:10037000080C5C6103E04FF0000C00E000BF00BF20
:10038000FF2801D8984601E003F104084646FF28FB
:1003900002D84FEA820803E0A2F108084FEA880871
:1003A0004746D6F800804FF00F0909FA07F928EA06
:1003B00009080CFA07F900E088E048EA0908C6F8DD
:1003C0000080D1F8048008F08058B8F1805F7DD1BA
:1003D00000BFDFF8CC81D8F8188048F00108DFF8BA
:1003E000C091C9F81880C846D8F8188008F00108EC
:1003F000CDF8008000BF00BF4FEAB9384FEA92093C
:1004000058F829504FEA82784FEA18794FF00F08D0
:1004100008FA09F825EA0805DFF88881434502D182
:100420004FF0000816E0DFF88081434502D14FF01D
:1004300001080FE0DFF87481434502D14FF0020854
:1004400008E0DFF86C81434502D14FF0030801E07A
:100450004FF004084FEA82794FEA197908FA09F84F
:1004600048EA0505DFF84C814FEA920948F829501F
:10047000D1F8048008F48018B8F5801F0AD1DFF89D
:100480003881D8F8008048EA0008DFF82C91C9F8D4
:10049000008009E0DFF82081D8F8008028EA000811
:1004A000DFF81491C9F80080D1F8048008F400182E
:1004B000B8F5001F10D1DFF8008108F10408D8F862
:1004C000008048EA0008DFF8F09000E05AE009F107
:1004D0000409C9F800800DE0DFF8DC8008F10408A9
:1004E000D8F8008028EA0008DFF8CC9009F1040968
:1004F000C9F80080D1F8048008F40038B8F5003F4E
:100500000ED1DFF8B480A8F10408D8F8008048EADA
:100510000008DFF8A490A9F10409C9F800800DE0F3
:10052000DFF89480A8F10408D8F8008028EA0008D1
:10053000DFF88490A9F10409C9F80080D1F804809B
:1005400008F48038B8F5803F0ED1DFF86C80A8F150
:100550000808D8F8008048EA0008DFF85C90A9F1A4
:100560000809C9F800800DE0DFF84C80A8F1080800
:10057000D8F8008028EA0008DFF83C90A9F10809C3
:10058000C9F80080521CD1F8008028FA02F8B8F1AE
:10059000000F7FF489AEBDE8F8870000000011105D
:1005A0000010024000080140000C01400010014012
:1005B0000014014008000140080401400AB1016133
:1005C00001E00B04036170470148006870470000B8
:1005D00000000020034800680349097808440149E5
:1005E00008607047000000200800002010B508488F
:1005F000006840F0100006490860032000F098F8F9
:100600000F2000F007F800F02BF8002010BD0000CC
:100610000020024070B504460E4800784FF47A710D
:10062000B1FBF0F00C490968B1FBF0F5284600F089
:10063000C3FB08B1012070BD102C07D20022214657
:10064000501E00F037F80548046001E00120F2E791
:100650000020F0E7080000200C000020040000202B
:1006600008B500BF1148806940F001000F4988615A
:100670000846806900F00100009000BF00BF00BF85
:100680000846C06940F08050C8610846C06900F063
:100690008050009000BF00BF00BF0549486820F0AF
:1006A000E06040F00070486000BF08BD00100240EC
:1006B000000001402DE9F05F80460D4616460027F8
:1006C00001F01AF9074639462A46334601F0070079
:1006D000C0F1070ABAF1040F02D94FF0040A01E091
:1006E000C0F1070AD14600F1040ABAF1070F02D29D
:1006F0004FF0000A01E0A0F1030AD4464FF0010ACE
:100700000AFA09FAAAF1010A0AEA020A0AFA0CFA32
:100710004FF0010B0BFA0CFBABF1010B0BEA030BD7
:100720004AEA0B042146404601F0EEF8BDE8F09F8E
:1007300000BF00F00702064B19684FF6FF0319408F
:10074000044B0B4343EA0221014B196000BF704781
:100750000CED00E00000FA0570B504460D460CB93A
:10076000012070BD5A48006800F00700A8420ED270
:100770005748006820F0070028435549086008469C
:10078000006800F00700A84201D00120E9E72078C6
:1007900000F0020002281DD1207800F00400042897
:1007A00005D14C48406840F4E0604A4948602078F0
:1007B00000F00800082805D14648406840F4605021
:1007C000444948604348406820F0F000A16808436D
:1007D00040494860207800F0010078B36068012843
:1007E00006D13C48006800F4003090B90120B8E719
:1007F0006068022806D13748006800F0007040B9F0
:100800000120AEE73348006800F0020008B901207B
:10081000A7E73048406820F00300616808432D498D
:100820004860FFF7D1FE064609E0FFF7CDFE801BCA
:1008300041F28831884202D9032092E707E0254837
:10084000406800F00C006168B0EB810FEDD12048EA
:10085000006800F00700A8420ED91D48006820F08B
:10086000070028431A4908600846006800F007009E
:10087000A84201D0012074E7207800F00400042889
:1008800007D11448406820F4E060E168084311494A
:100890004860207800F00800082808D10D4840681A
:1008A00020F46050216940EAC1000A49486000F024
:1008B00019F808494968C1F30311074A515CC84057
:1008C0000649086006480068FFF7A4FE002048E7D4
:1008D0000020024000100240C61900080C00002051
:1008E0000400002070B50021002200240023002015
:1008F000134D696801F00C05F5B1042D02D0082DE7
:1009000019D101E00F4819E00F4DC1F38346AB5DEB
:1009100001F4803555B10A4D6D68C5F340450B4E65
:10092000725D084D5D43B5FBF2F402E0084D03FB38
:1009300005F4204602E000BF024800BF00BF70BDC2
:100940000010024000127A00B4190008C41900080F
:1009500000093D00F8B504460CB90120F8BD207827
:1009600000F00100002878D0F848406800F00C0042
:1009700004280CD0F548406800F00C00082811D17C
:10098000F248406800F48030B0F5803F0AD1EF486B
:10099000006800F4003000285FD0606800285CD157
:1009A0000120DBE700BF6068B0F5803F06D1E74873
:1009B000006840F48030E549086028E0606858B974
:1009C000E248006820F48030E0490860084600688A
:1009D00020F4802008601AE06068B0F5A02F0BD1E9
:1009E000DA48006840F48020D8490860084600686A
:1009F00040F4803008600AE0D448006820F4803079
:100A0000D24908600846006820F48020086000BFD2
:100A1000606888B1FFF7D8FD054606E0FFF7D4FD12
:100A2000401B642801D9032098E7C848006800F4F7
:100A300000300028F2D010E0FFF7C6FD054606E0C2
:100A4000FFF7C2FD401B642801D9032086E7BF4899
:100A5000006800F400300028F2D1207800F0020095
:100A6000022857D1B948406800F00C0050B1B7488F
:100A7000406800F00C00082818D1B448406800F421
:100A8000803098B9B148006800F0020020B12069B8
:100A9000012801D0012061E7AC48006820F0F8008F
:100AA000616940EAC100A949086033E02069E8B102
:100AB0000120A7490860FFF787FD054606E0FFF71C
:100AC00083FD401B022801D9032047E79F480068A7
:100AD00000F002000028F2D09C48006820F0F800E6
:100AE000616940EAC1009949086013E00020984913
:100AF0000860FFF769FD054606E0FFF765FD401B4E
:100B0000022801D9032029E79048006800F002007C
:100B10000028F2D1207800F0080008282DD1A06923
:100B2000B8B101208B490860FFF74EFD054606E08D
:100B3000FFF74AFD401B022801D903200EE7834836
:100B4000406A00F002000028F2D0012000F038FDD9
:100B500013E000207F490860FFF736FD054606E0F8
:100B6000FFF732FD401B022801D90320F6E6774843
:100B7000406A00F002000028F2D1207800F0040062
:100B8000042873D100277148C06900F0805070B903
:100B900000BF6E48C06940F080506C49C86108468B
:100BA000C06900F08050009000BF00BF01276A4874
:100BB000006800F48070B0B96748006840F4807045
:100BC00065490860FFF700FD054606E0FFF7FCFCFD
:100BD000401B642801D90320C0E65F48006800F488
:100BE00080700028F2D000BFE068012806D1574885
:100BF000006A40F001005549086227E0E06858B9F2
:100C00005248006A20F00100504908620846006A14
:100C100020F00400086219E0E06805280BD14B4879
:100C2000006A40F00400494908620846006A40F042
:100C3000010008620AE04548006A20F001004349CB
:100C400008620846006A20F00400086200BFE068FD
:100C5000A0B1FFF7B9FC054609E0FFF7B5FC401B62
:100C600041F28831884202D9032077E622E03748F2
:100C7000006A00F002000028EFD012E0FFF7A4FCA9
:100C8000054608E0FFF7A0FC401B41F2883188428E
:100C900001D9032062E62D48006A00F00200002816
:100CA000F0D1012F05D12948C06920F08050274993
:100CB000C86100BFE069C8B32448406800F00C0078
:100CC000082860D0E069022848D100202049086641
:100CD000FFF77AFC054606E0FFF776FC401B02288A
:100CE00001D903203AE61948006800F00070002896
:100CF000F2D1206AB0F5803F07D11448406820F453
:100D00000030A168084311494860D4E9080108434C
:100D10000E49496821F4741108430C4948600120C8
:100D20000B490866FFF750FC054607E03DE0FFF77A
:100D30004BFC401B022801D903200FE60348006842
:100D400000F000700028F2D02FE0000000100240F8
:100D500000004242800442420070004000201449DA
:100D60000866FFF731FC054606E0FFF72DFC401B47
:100D7000022801D90320F1E50E48006800F0007058
:100D80000028F2D111E0E069012800D1E6E5094828
:100D9000466806F48031206A814204D106F470115D
:100DA000606A814201D00120D8E50020D6E500002C
:100DB000000042420010024070B504462546681EFD
:100DC000B0F1807F01D301200FE0681E4FF0E021D9
:100DD00048610F214FF0FF3000F096FD00204FF0EA
:100DE000E021886107200861002070BD30B502460F
:100DF0000B4600BF92F83C00012801D1022030BD13
:100E0000012082F83C0000BF022082F83D001068FB
:100E100044681068816824F07004186804431068FE
:100E20004460104D1068A8420BD01068B0F1804F9C
:100E300007D00D4D1068A84203D00C4D1068A84291
:100E400005D121F0800158680143106881600120BC
:100E500082F83D0000BF002082F83C0000BF00BFC8
:100E6000CDE70000002C01400004004000080040D5
:100E700010B504460CB9012010BD94F83D0028B906
:100E8000002084F83C00204600F026F8022084F878
:100E90003D00211D206800F0E1FB012084F84600A0
:100EA00000BF84F83E0001213F200155402001553C
:100EB0004120015500BF00BF012084F842004320BB
:100EC0000155442001554520015500BF012084F8FB
:100ED0003D000020D0E7000008B50168B1F1804F67
:100EE0000DD100BF0649C96941F00101044AD16131
:100EF0001146C96901F00101009100BF00BF08BDA2
:100F0000001002402DE9F04104460D46002700BFC5
:100F100094F83C00012802D10220BDE8F0810120B4
:100F200084F83C0000BF022084F83D0020688668F9
:100F300026F0770626F47F462068866028685028C9
:100F400033D00CDC202850D004DC00284BD01028F3
:100F500051D149E0302849D040284CD139E06028AF
:100F60002DD0702807D0B0F5805F03D0B0F5005FBA
:100F700041D10DE041E0D5E902136A68206800F034
:100F8000C0FB2068866846F077062068866034E0FB
:100F9000D5E902136A68206800F0B3FB2068806816
:100FA00040F480402168886027E0EA68696820682A
:100FB00000F078FC5021206800F0AEFB1DE0EA68EC
:100FC0006968206800F081FC6021206800F0A4FBC3
:100FD00013E0EA686968206800F064FC402120683A
:100FE00000F09AFB09E000BF00BF00BF296820683D
:100FF00000F092FB01E0012700BF00BF012084F850
:101000003D0000BF002084F83C0000BF384684E764
:101010002DE9F04104460D4614B90120BDE8F081E8
:1010200094F83D0028B9002084F83C00204600F0E8
:1010300051F8022084F83D002068806844F20701DE
:10104000884321688860211D206800F007FB206824
:10105000D0F80880206886692068076A286840EA16
:10106000080840F203308643A969A86840EA0120D5
:10107000064340F60C4086434FF2F0008643E96990
:10108000E86840EA0120064328690001296A40EA2D
:101090000130064327F022076969686840EA0110B9
:1010A00007432068C0F808802068866120680762CE
:1010B000012084F8460084F83E0001213F200155BC
:1010C000012084F8420043200155012084F83D00AE
:1010D0000020A3E710B586B00446002002900390DC
:1010E0000490059014492068884223D100BF13481A
:1010F000C06940F002001149C8610846C06900F0AB
:101100000200019000BF00BF00BF0846806940F0A8
:10111000040088610846806900F00400019000BF67
:1011200000BFC020029000200390049002A9044850
:10113000FFF7B4F806B010BD0004004000100240F4
:101140000008014010B586B00446002002900390CC
:10115000049005902068B0F1804F16D100BF0C4874
:10116000806940F004000A4988610846806900F0FF
:101170000400019000BF00BF0120029002200390F4
:10118000059002A90348FFF789F806B010BD0000DA
:1011900000100240000801402DE9F04104460D46D0
:1011A0001646002700BF94F83C00012802D1022017
:1011B000BDE8F081012084F83C0000BF36B1042E68
:1011C0001BD0082E31D00C2E5ED145E02946206878
:1011D00000F0ACFA2068806940F00800216888615E
:1011E0002068806920F00400216888612068806997
:1011F000296908432168886148E02946206800F091
:10120000C5FA2068806940F4006021688861206820
:10121000806920F48060216888612068806929697C
:1012200040EA01202168886130E02946206800F00A
:10123000E1FA2068C06940F008002168C8612068B0
:10124000C06920F004002168C8612068C06929696C
:1012500008432168C86119E02946206800F0FEFAB9
:101260002068C06940F400602168C8612068C069D6
:1012700020F480602168C8612068C069296940EA5B
:1012800001202168C86101E0012700BF00BF00BF45
:10129000002084F83C0000BF384689E710B50446BA
:1012A0000CB9012010BD94F83D0028B9002084F845
:1012B0003C00204600F025F8022084F83D00211D66
:1012C000206800F0CBF9012084F8460000BF84F8C4
:1012D0003E0001213F20015540200155412001558C
:1012E00000BF00BF012084F8420043200155442084
:1012F00001554520015500BF012084F83D00002024
:10130000D0E7704770B504460D4615B994F83E0015
:101310000BE0042D02D13F20005D06E0082D02D134
:101320004020005D01E04120005D012801D0012046
:1013300070BD1DB9022084F83E000EE0042D03D1DB
:1013400002213F20015508E0082D03D10221402051
:10135000015502E002214120015501222946206861
:1013600000F0BEF919492068884201D1012000E04F
:10137000002028B12068406C40F400402168486497
:101380001249206888420BD02068B0F1804F07D006
:101390000F492068884203D00E49206888420CD14A
:1013A0002068806800F00706062E0CD020680068D0
:1013B00040F001002168086005E02068006840F006
:1013C0000100216808600020B2E70000002C014005
:1013D000000400400008004000BFFEE700B585B0F3
:1013E0000020019002900390049000BF274880697C
:1013F00040F02000254988610846806900F02000FF
:10140000009000BF00BF00BF0846806940F00400A4
:1014100088610846806900F00400009000BF00BFAA
:1014200000BF0846806940F008008861084680696E
:1014300000F00800009000BF00BF00220621144801
:10144000FFF7BCF8062001900120029000200390D5
:101450000220049001A90E48FEF720FF4FF48050AF
:101460000190002002900220039001A90948FEF794
:1014700015FF4FF48070019000200290012003902E
:1014800001A90348FEF70AFF05B000BD00100240A5
:1014900000080140000C014000B58DB0002009900B
:1014A0000A900B900C90079008901C216846FEF75C
:1014B0008BFE4FF080401F49086040F28F6048600B
:1014C00000211C4881606321C160002101618161AC
:1014D000FFF7CEFC08B1FEF7DDFE4FF48050099017
:1014E00009A91448FFF70EFD08B1FEF7D3FE114815
:1014F000FFF7D4FE08B1FEF7CDFE0020079008905C
:1015000007A90C48FFF772FC08B1FEF7C3FE602084
:101510000090002001900290049000226946054846
:10152000FFF73AFE08B1FEF7B5FE0248FFF70AFEE4
:101530000DB000BD1000002000B58BB0242102A822
:10154000FEF742FE002000900190184818490860FC
:10155000002048600021164881604FF6FF71C1608D
:10156000002101618161012002900020039001208F
:10157000049000200590069007900120089000201C
:1015800009900A9002A90A48FFF742FD08B1FEF748
:1015900081FE00200090019069460548FFF726FC77
:1015A00008B1FEF777FE0BB000BD0000000400405C
:1015B0005800002000BFFEE700BFFEE770470000B4
:1015C00008B508490968C9084FF47A72B1FBF2F10D
:1015D0004143009100BF00BF00994A1E00920029BC
:1015E000F9D108BD0C000020704710B5FEF7F2FFDE
:1015F00010BD00B58FB0282105A8FEF7E5FD142128
:101600006846FEF7E1FD01200590000406900020E9
:1016100007900120099002200C90C1030D914FF416
:10162000E0110E9105A8FFF795F908B1FEF732FE1B
:101630000F20009002200190002002904FF4806063
:1016400003900020049002216846FFF785F808B156
:10165000FEF720FE0FB000BD7047000010B5026815
:101660001C4B984208D0B0F1804F05D01A4B9842DD
:1016700002D01A4B984203D122F070024B681A43F1
:10168000144B984208D0B0F1804F05D0124B9842CD
:1016900002D0124B984203D122F44072CB681A4315
:1016A00022F080034C6943EA040202608B68C36243
:1016B0000B688362074B984201D10B6903630123D6
:1016C0004361036903F001031BB1036923F00103C4
:1016D000036110BD002C01400004004000080040E0
:1016E00030B501F01F05012404FA05F3046A9C4398
:1016F0000462046A01F01F0502FA05F52C43046236
:1017000030BD30B50C46816821F47F4142EA0325A3
:1017100025432943816030BD0A46816821F070016C
:1017200042F00703194381607047000030B5026A38
:10173000056A25F0010505624368846924F0700498
:1017400024F003040D682C4322F002028D682A4322
:101750000D4DA84206D100BF22F00802CD682A43F1
:1017600022F00402084DA84207D123F4807323F429
:1017700000734D692B438D692B43436084614D6831
:101780004563026230BD0000002C014030B5026AA2
:10179000056A25F0100505624368846924F4E04475
:1017A00024F440740D6844EA052422F020028D6878
:1017B00042EA05120E4DA84207D100BF22F0800276
:1017C000CD6842EA051222F04002094DA84209D133
:1017D00023F4806323F400634D6943EA85038D6934
:1017E00043EA8503436084614D688563026230BDCE
:1017F000002C014030B5026A056A25F48075056247
:101800004368C46924F0700424F003040D682C4379
:1018100022F400728D6842EA05220F4DA84207D1DA
:1018200000BF22F40062CD6842EA052222F4806201
:10183000094DA84209D123F4805323F400534D6984
:1018400043EA05138D6943EA05134360C4614D689B
:10185000C563026230BD0000002C014030B5036A50
:10186000056A25F4805505624468C26922F4E042A5
:1018700022F440720D6842EA052223F400538D6879
:1018800043EA0533064DA84204D124F480444D694F
:1018900044EA85144460C2614D680564036230BD4A
:1018A000002C014030B50B461446026A056A25F04B
:1018B00001050562816921F0F00141EA041122F07D
:1018C0000A021A438161026230BD30B50B461446EC
:1018D000026A056A25F010050562816921F47041EC
:1018E00041EA043122F0A00242EA0312816102625D
:1018F00030BD00BFFEE7000002480068C0F30220D0
:10190000704700000CED00E010B5002804DB0A076A
:10191000130E054A135406E00A07140E034A00F09A
:101920000F031B1FD45410BD00E400E018ED00E0CD
:10193000FEF75CFEFFF75DFEFFF750FDFFF7ACFD25
:10194000FFF7FAFD322000F029F81E21002000F0F8
:1019500003F800BFFEE7000070B504460D460D48D1
:101960000068456354B1012202210B48FEF726FEB0
:10197000002204210848FEF721FE09E0002202218E
:101980000548FEF71BFE012204210348FEF716FE60
:1019900070BD0000100000200008014010B5044692
:1019A00000210348FFF7AEFC01480068446310BD06
:1019B0001000002002030405060708090A0B0C0D9D
:1019C0000E0F1010010200000000000000000102D4
:1019D00003040607080900000000010203040000D8
:1019E000001A000800000020100000002801000874
:1019F000101A000810000020F00600004401000842
:101A000000000000100000000100000000127A0039
:04000005080000ED02
:00000001FF
